:020000040800F2
:10000000680600203902000875020008770200081F
:10001000790200087B0200087D0200080000000051
:100020000000000000000000000000007F02000847
:100030008102000800000000830200088502000819
:10004000870200088702000887020008870200086C
:10005000870200088702000887020008870200085C
:10006000870200088702000887020008870200084C
:10007000870200088702000887020008870200083C
:10008000870200088702000887020008870200082C
:10009000870200088702000887020008870200081C
:1000A000870200088702000887020008870200080C
:1000B00087020008870200088702000887020008FC
:1000C00087020008870200088702000887020008EC
:1000D00087020008870200088702000887020008DC
:1000E00087020008870200088702000887020008CC
:1000F00087020008870200088702000887020008BC
:1001000087020008870200088702000887020008AB
:10011000870200088702000887020008870200089B
:10012000870200088702000887020008870200088B
:10013000870200088702000887020008870200087B
:10014000870200088702000887020008870200086B
:10015000870200088702000887020008870200085B
:10016000870200088702000887020008870200084B
:1001700087020008870200088702000800000000CC
:10018000870200088702000800F002F800F045F836
:100190000AA090E8000C82448344AAF10107DA45E2
:1001A00001D100F03AF8AFF2090EBAE80F0013F0EF
:1001B000010F18BFFB1A43F001031847DC070000CA
:1001C000FC070000103A24BF78C878C1FAD852075B
:1001D00024BF30C830C144BF04680C6070470000C1
:1001E0000023002400250026103A28BF78C1FBD840
:1001F000520728BF30C148BF0B6070471FB500F0E1
:10020000C5FB00F0ADF804000020002100F0A8FBC1
:10021000401C60601FBD10B510BD00F0E9F811462C
:10022000FFF7ECFF00F096FB00F007F903B4FFF7CF
:10023000F2FF03BC00F00AF916481749174B994220
:100240003CBF50F8042B41F8042BF8D314494FF06D
:1002500000028B4238BF43F8042BFAD3DFF8440086
:10026000016841F470010160BFF34F8FBFF36F8FDE
:100270000D480047FEE7FEE7FEE7FEE7FEE7FEE784
:10028000FEE7FEE7FEE7FEE708480949094A0A4B90
:1002900070470000C80A0008000000200800002085
:1002A0006806002088ED00E0890100086800002051
:1002B00068060020680200206802002010B500F0E7
:1002C0004FF8001D10BD00BF9906000010B5431C7B
:1002D00002E010F8011B71B18107FAD14FF0013231
:1002E00002C88C1A8C4314EAC211F9D0C01A0A064B
:1002F00003D0C01E10BDC01A10BD0A0401D0801E5C
:1003000010BD0902FCD0401E10BD4FF0000200B528
:10031000134694469646203922BFA0E80C50A0E828
:100320000C50B1F12001BFF4F7AF090728BFA0E8D6
:100330000C5048BF0CC05DF804EB890028BF40F8A2
:10034000042B08BF704748BF20F8022B11F0804FE4
:1003500018BF00F8012B70477047704770470000C6
:10036000004870472800002000487047080000201F
:100370004FF0013C50F8042B51F8043B9A4221D134
:10038000A2EB0C03934313EACC1317D150F8042BC0
:1003900051F8043B9A4215D1A2EB0C03934313EAA4
:1003A000CC130BD150F8042B51F8043B9A4209D1DD
:1003B000A2EB0C03934313EACC13DBD04FF0000005
:1003C000704700BFD01A01BAB1FA81F101F01801EB
:1003D00022FA01F0CB40C1F12001DBB2C0B2C01A59
:1003E0002CFA01F3D11A914311EAC311E6D17047F7
:1003F0007546FFF7B9FFAE4605006946534620F043
:100400000700854618B020B5FFF73EFFBDE8204045
:100410004FF000064FF000074FF000084FF0000BC0
:1004200021F00701AC46ACE8C009ACE8C009ACE873
:10043000C009ACE8C0098D46704710B50446AFF35B
:1004400000802046BDE81040FFF7F0BE01491820AB
:10045000ABBEFEE72600020070470000034840697B
:1004600080F4807001494861704700000010004826
:100470002348C06C40F012002149C8646FF030007E
:10048000204908600846006840F0100008601D48D8
:100490000830006820F030001A490831086008462A
:1004A000006840F030000860081F006820F0040079
:1004B000091F086013480C30006820F03000114913
:1004C0000C3108606FF440300F490860084600683E
:1004D00040F4803008600846806820F4403088602E
:1004E0000846806840F4403088600846406820F440
:1004F000807048600846C06820F44030C86070478B
:100500000010024000040048001000480348006842
:1005100080F004000149086070470000140400489E
:100520005E49096821F007015C4A116011460968BB
:1005300041F0020111605A49096841F48071584A3A
:10054000116000BF5649096801F480610029F9D0A3
:1005500010205349496821F0F851514A5160114621
:10056000496841EA006151601146096821F08071D3
:10057000116000BF4A49096801F00071B1F1007FC4
:10058000F8D04749C96821F00301454AD1601146B6
:10059000C96841F00201D1601146C96821F4FE41E9
:1005A00041F4A051D1601146C96821F0700141F0B9
:1005B0001001D1601146C96821F0C061D1601146B7
:1005C000C96841F08071D1601146096841F08071BD
:1005D000116000BF3249096801F000710029F9D0AB
:1005E0002F49896821F003012D4A916011468968DD
:1005F00041F00301916000BF2949896801F00C01B5
:100600000C29F9D12649896821F0F001244A91602A
:100610001146896821F4E06191601146896821F4EE
:10062000605191601146096821F08061116000BF3E
:100630001B49096801F08061B1F1806FF8D0184959
:10064000096921F4FE41164A11611146096941F414
:10065000C05111611146096941F40031116111461F
:10066000096941F4803111611146096841F08061E6
:10067000116000BF0A49096801F080610029F9D0C2
:1006800007498831096821F44001054AC2F88810F9
:100690001146096E41F400111166704700200240B6
:1006A000001002401A48C06C40F008001849C864A5
:1006B0001848006820F47050164908600846006821
:1006C00040F42050086013482030006840F0EE608D
:1006D0001049203108600F480830006840F470501D
:1006E0000C4908310860081D006820F47050091D8D
:1006F00008600846006840F4A05008600548001DE6
:10070000006820F060000349091D08607047000080
:1007100000100240000C004800B50D48806D40F408
:1007200000300B4988650A488830006820F00C00CA
:10073000C1F888000846D0F8880040F00400C1F8ED
:100740008800FFF7AFFF034800F010F800BD00007D
:100750000010024000440040642242430723B2FBE1
:10076000F3F100BF4A1E111EFCD17047016821F051
:1007700001010160016821F010210160016821F48C
:1007800000410160416821F44051416042F28D0115
:10079000C160016841F00C0101601E4988421BD113
:1007A000016841F020010160016821F04001016011
:1007B000016821F010010160016821F080010160F1
:1007C000016821F480710160016821F0400101603D
:1007D000016821F0010101600F49884209D1016AD5
:1007E00041F0400101620D49096841F0C0010B4A26
:1007F0001160016841F00101016000BFC16901F4AD
:1008000000110029FAD000BFC16901F4800100295C
:10081000FAD07047004C00400044004008380140C6
:100820000146C86900F0200010B1888CC0B2704742
:100830000020FCE7F0B504460E46174600250CE004
:1008400000BFE06900F080000028FAD0705D2085CC
:100850004FF49670FFF780FF6D1CBD42F0D300BFD0
:10086000E06900F040000028FAD0E06920F0400084
:10087000E061F0BD86B0FFF753FEFFF7F9FDFFF72B
:100880004BFF0025002654E02A48FFF7C9FF044625
:10089000FFF714FD0068005D00F0980078B30D2CA0
:1008A00005D10026142101A8FFF72FFD27E0082C11
:1008B00013D10021701E064601AA115401221EA167
:1008C0001C48FFF7B7FF01A8FFF700FD07463A46AF
:1008D00001A91848FFF7AEFF11E03046761C01A9C8
:1008E0000C54012214A11348FFF7A4FF01A8FFF73D
:1008F000EDFC07463A4601A90E48FFF79BFF4FF46F
:100900007A70FFF729FF00F01FF810B900F016F811
:1009100070B10A35B5F57A7F0ADB00F015F808B139
:10092000FFF7F4FD00F00AF808B1FFF797FD002586
:1009300000BFA9E7004400400D0000000148006826
:100940007047000004000020014800687047000064
:100950000000002010B5FFF78DFF002010BD000043
:1009600010B500290AD00878002807D00548784437
:10097000FFF7FEFC002801D0002010BD024878449B
:1009800010BD00004A000000420000004FF040701F
:10099000E1EE100A70470000C80A000800000020BD
:1009A00008000000C4010008D00A00080800002068
:1009B00060060000E0010008100100004300000094
:1009C000F8FFFFFF00404040404040404040414170
:1009D0004141414040404040404040404040404014
:1009E00040404040400502020202020202020202AE
:1009F00002020202022020202020202020202002AB
:100A0000020202020202909090909090101010103A
:100A100010101010101010101010101010101010D6
:100A2000020202020202888888888888080808086A
:100A30000808080808080808080808080808080836
:100A4000020202024000000000000000000000005E
:100A50000000000000000000000000000000000096
:100A60000000000000000000000000000000000086
:100A70000000000000000000000000000000000076
:100A80000000000000000000000000000000000066
:100A90000000000000000000000000000000000056
:100AA0000000000000000000000000000000000046
:100AB0000000000000000000000000000000000036
:100AC0000000000000000000000000000000000026
:040000050800018965
:00000001FF
