:020000040800F2
:10000000800600202D020008690200086B0200082B
:100010006D0200086F020008710200080000000075
:100020000000000000000000000000007302000853
:10003000750200080000000077020008790200083D
:100040007B0200087B0200087B0200087B0200089C
:100050007B0200087B0200087B0200087B0200088C
:100060007B0200087B0200087B0200087B0200087C
:100070007B0200087B0200087B0200087B0200086C
:100080007B0200087B0200087B0200087B0200085C
:100090007B0200087B0200087B0200087B0200084C
:1000A0007B0200087B0200087B0200087B0200083C
:1000B0007B0200087B0200087B0200087B0200082C
:1000C0007B0200087B0200087B0200087B0200081C
:1000D0007B0200087B0200087B0200087B0200080C
:1000E0007B0200087B0200087B0200087B020008FC
:1000F0007B0200087B0200087B0200087B020008EC
:100100007B0200087B0200087B0200087B020008DB
:100110007B0200087B0200087B0200087B020008CB
:100120007B0200087B0200087B0200087B020008BB
:100130007B0200087B0200087B0200087B020008AB
:100140007B0200087B0200087B0200087B0200089B
:100150007B0200087B0200087B0200087B0200088B
:100160007B0200087B0200087B0200087B0200087B
:100170007B0200087B0200087B02000800000000F0
:100180007B0200087B02000800F002F800F03EF855
:100190000AA090E8000C82448344AAF10107DA45E2
:1001A00001D100F033F8AFF2090EBAE80F0013F0F6
:1001B000010F18BFFB1A43F001031847E8180000AD
:1001C000F81800000023002400250026103A28BF5C
:1001D00078C1FBD8520728BF30C148BF0B607047B9
:1001E000662901F01384642900F0AC800020704778
:1001F0001FB501F006FC00F0ADFB0400002000215B
:1002000001F072FBE0601FBD10B510BD00F0A2FC54
:100210001146FFF7EDFF01F0BFFA00F0C0FC03B498
:10022000FFF7F2FF03BC00F0C3FC000016481749BB
:10023000174B99423CBF50F8042B41F8042BF8D3DC
:1002400014494FF000028B4238BF43F8042BFAD315
:10025000DFF84400016841F470010160BFF34F8F83
:10026000BFF36F8F0D480047FEE7FEE7FEE7FEE7AE
:10027000FEE7FEE7FEE7FEE7FEE7FEE7084809497E
:10028000094A0A4B70470000D01A000800000020FD
:10029000000000208006002088ED00E089010008B1
:1002A00080000020800600208002002080020020C4
:1002B0000FB41CB5084B06AA7B446946009005980C
:1002C00000F02FFB04460020694600F03DFB20466D
:1002D0001CBC5DF814FB00008D0600002DE9F04108
:1002E0000E460446002020622046E168884730B36D
:1002F000252805D0D4E901219047206A401CF2E767
:10030000E168204600278847050018D0A5F1410084
:10031000192802D820354FF4006732462946204676
:100320002760FFF75DFF40B1012804D0F61D26F0DD
:1003300007060836D8E7361DD6E72846DAE7206AEA
:10034000BDE8F0812DE9F0410646002410687529CA
:10035000314616A510D0AFF30080002802DA4042E3
:1003600013A507E031688A0701D512A502E0490705
:1003700004D511A5012401E0AFF3008000210A2279
:1003800006F1240709E0B0FBF2FCB0FBF2F302FB3C
:100390001C00303078541846491C0028F3D12346FD
:1003A0002A463046BDE8F04100F04BB8000000009E
:1003B0002D0000002B000000200000004FF0013C49
:1003C00050F8042B51F8043B9A4221D1A2EB0C03C4
:1003D000934313EACC1317D150F8042B51F8043B84
:1003E0009A4215D1A2EB0C03934313EACC130BD121
:1003F00050F8042B51F8043B9A4209D1A2EB0C03AC
:10040000934313EACC13DBD04FF00000704700BFDA
:10041000D01A01BAB1FA81F101F0180122FA01F003
:10042000CB40C1F12001DBB2C0B2C01A2CFA01F3FB
:10043000D11A914311EAC311E6D170477047704752
:1004400070472DE9F0470D4699469246044600F163
:1004500024080168880604D5E06921F010012160B4
:1004600000E00120A84201DD471B00E00027A16950
:100470007A1902EB0900081AA0612078C00602D49C
:100480002046AFF30080002608E0D4E901211AF8E5
:1004900006009047206A401C761C20624E45F4DB23
:1004A0002078C0060AD52046AFF3008006E0D4E9E4
:1004B000012130209047206A401C2062381EA7F19D
:1004C0000107F4DC07E0D4E9012118F805009047A2
:1004D000206A401C2062281EA5F10105F3DC20469D
:1004E000AFF300802078000602D50220BDE8F08737
:1004F0000120FBE770472DE9FF4F0C461E464FF0E9
:10050000FF378BB0D2E90001DDF860800A908A469F
:10051000C1F30A5505B93D46002108464FF00000D9
:10052000BAF1000F00F4400005DA00EB80004FF450
:10053000400101EA50004FEA9059B9F1010F00DD86
:10054000B9460A9850EA4A000ED044F61050A5F277
:10055000FF3545432F14B8F1000F1ED07542291EF8
:100560001EDDC9F100021CE0B8F1010F4FF00000E0
:1005700001D0302103E0F24305E02154401CB04299
:10058000FBDB30460022002121540B99C1F8088082
:10059000C1E900200FB000F0BCB9BD1B6D1CDEE747
:1005A0004A4600DA694206A800F05EFA06AB93E814
:1005B000070003AB83E8070050460A9900F0FFFAF2
:1005C0008DE80700A0F500501F3800900398002D1B
:1005D0000ADD42F21F014A460844002303A90390A2
:1005E000684600F068FD09E0A0F500504A461F3853
:1005F000002303A90390684600F072FD8DE8070010
:100600000004000C03D04FF0FF30410800E010461A
:10061000B8F1000F03D00022009215461EE0751EAF
:1006200005D400F09BF9303262556D1EF9D5B34602
:100630000122084302D000227F1C04E020783028E9
:1006400001D100227F1E002A099784D01DE0112DC0
:1006500007DA00F083F9303262556D1C50EA01026E
:10066000F5D1084302D00098C8B10EE00021681E01
:1006700005E0235C625C63542254401E491C8142A5
:10068000F7DBAB46A81B401E0990002004F80B00C6
:100690000B98099AC0F80880C0E9002B7AE7112668
:1006A0004FF0000857E72DE9F04F88460446D21D69
:1006B00022F0070191B0D1E90001CDE90A0101F072
:1006C00053F802460B98C00F01D02D2007E0206898
:1006D000810701D52B2002E0202101EAC000032A76
:1006E000099001D0072A05DB03464146204600F069
:1006F0007BF90BE12078800601D5E06900E0062057
:10070000B8F1650F814606D0B8F1660F18D0B8F180
:10071000670F70D131E00020B9F1110F009001DBBB
:10072000112301E009F101030AAA01A90CA8FFF7AE
:10073000E2FEDDE90C70002609F10105834647E081
:1007400001204B4600904FF000470AAA01A90CA8CF
:10075000FFF7D1FEDDE90DB00C995D46002610B91A
:1007600009F101000D18B9EB050003D4C0F1FF3603
:1007700009F10105A5EB09002BE0B9F1010F01DA40
:100780004FF001090020B9F1110F0090484601DD3A
:10079000112300E003460AAA01A90CA8FFF7ABFE4B
:1007A000DDE90C704D4600268346207800070AD408
:1007B000AB4500DA5D4601A8012D04DD411911F8B1
:1007C000011C302907D04F4502DA17F1040F04DA73
:1007D000012082460FE06D1EEEE7002F02DCED1BCC
:1007E0003E4403E0781CA84200DD7D1CB81B00F1EC
:1007F000010A4FF000472078000703D4AA4501DB27
:100800004FF0FF3A0021B7F1004F0DF143088DF88A
:10081000431024D002202B23002F01DA7F422D2306
:100820000A21021EA0F1010000DC5FB197FBF1FC80
:1008300097FBF1F201FB1C7C17460CF1300C08F819
:1008400001CDEEE7A8F1010003702188090501D56B
:10085000452100E06521A0F1010800F8011C09987C
:100860000FA9A1EB0807FF1D00B10120411901EB01
:10087000EA70A1693844081A401EA0612078C006B9
:1008800002D42046AFF30080099828B1D4E90121B1
:100890009047206A401C20622078C00622D520465E
:1008A000AFF300801EE0002E04DBB34502DD01A89B
:1008B000805D00E03020D4E901219047206A401C8F
:1008C0002062761CAAF101005FEA000A0AD100F05A
:1008D00041F8C0680168405CD4E901219047206A72
:1008E000401C2062281EA5F10105DCDC07E0D4E9EC
:1008F000012118F8010B9047206A401C2062381E25
:10090000A7F10107F3DC2046AFF30080032011B00C
:1009100041E630BCBDE8C08F01694A1C026108781D
:10092000704700B58FB0CDE901310021059105492F
:100930007944CDE9031011466846FFF7CFFC0FB0AC
:1009400000BD0000E5FFFFFF0A6802F8010B0A6026
:1009500070470000004870474000002030B5B0F1FB
:100960000A024FEA900E71F100034EEA817EB0EB6D
:100970000E0061EB91014FEA101E4EEA017E10EB72
:100980000E0041EB11114FEA102E4EEA016E10EBF2
:100990000E0041EB11214FEA104E4EEA014E10EBD2
:1009A0000E0041EB1141401841F100014FEAD00027
:1009B00040EA41704FEAD10110EB80054FEA810413
:1009C00044EA907444EB01046D1944EB0404521B97
:1009D000A3414FF0000348BF0A3200D530BD401C90
:1009E00041F1000130BD00002DE9F0411F460446F1
:1009F00003260168072A01F4006004DB08B116A58C
:100A000005E016A503E008B115A500E015A521F045
:100A100010002060A069C01EA0610FB1401EA0613F
:100A20002046AFF300804FB1D4E90121384690470A
:100A3000206A401C2062C01C206206E0206AFAE79F
:100A4000D4E9012115F8010B9047761EF8D2204613
:100A5000AFF30080BDE8F0814E414E006E616E0044
:100A6000494E4600696E66002DE9F04781461646FC
:100A70008AB0354878440DC88DE80D003248784476
:100A8000801C03AC0DC884E80D0041F69B3008447F
:100A9000372190FBF1F290FBF1F5A5F1800501FB08
:100AA00012041B3C02D56442012000E00020DFF864
:100AB00098A080460027FA44AAF1BE0A0EE0E0079B
:100AC0000AD03246684607EB470101230AEB810151
:100AD00000F006FB8DE8070064107F1C002CEED1AF
:100AE000194F7F44AE3F19E0E80715D007EB04101B
:100AF0000DF1180A90E80E008AE80E00C068F04276
:100B000001D1981908903246012306A903A800F0E4
:100B1000E7FA03AB83E807006D10641C002DE3D1F6
:100B20004FF0010332466946B8F1000F03A802D026
:100B300000F0C1FA01E000F0D3FAC9E90001C9F8F8
:100B400008200AB0BDE8F087141000000048704784
:100B5000200000207546FFF7F9FFAE460500694604
:100B6000534620F00700854618B020B5FFF786FBF6
:100B7000BDE820404FF000064FF000074FF000089E
:100B80004FF0000B21F00701AC46ACE8C009ACE81F
:100B9000C009ACE8C009ACE8C0098D46704710B583
:100BA0000446AFF300802046BDE81040FFF737BB96
:100BB00001491820ABBEFEE72600020070475FEA3D
:100BC000400C08BF91F0000F4FEA8C234FEAC1227E
:100BD00043EA51514FEA1C5018BF00F5F0404FEA6C
:100BE000300018BF41F000415FEA6C5C00F02980E2
:100BF000BCF1FF3F08BF40F080407047130C06BFB8
:100C000012044FF0100C4FF0000C130E04BF120230
:100C10000CF1080C130F04BF12010CF1040C930F1C
:100C200004BF92000CF1020CD30F04BF52000CF170
:100C3000010C11464FF00002A0F11F00A0EB0C00C8
:100C4000704711F0004F08BF704731F000413FF48A
:100C5000D5AF0B0C06BF09044FF0100C4FF0000C81
:100C60000B0E04BF09020CF1080C0B0F04BF0901A5
:100C70000CF1040C8B0F04BF89000CF1020CCB0F9C
:100C800004BF49000CF1010CCCF12003A0EB0C00D7
:100C900022FA03F302FA0CF241EA030100F1010027
:100CA000704720F07F4C80EA030023F07F47ACEBD5
:100CB000070303F57C5300F0004003F1FF032DE927
:100CC00080494FEA154B09B44FEA144325EA0B4E0D
:100CD00024EA03480FF2042606EB132749083E785E
:100CE0005FEA320203FB0667C7F5000707FB06F65B
:100CF0004FEA54374FEAD64606F1020607FB066C68
:100D0000CCF1005C4FEA1C472CEA074C07FB06F4C9
:100D10000CFB06F504EB15464FEA961634BF00208F
:100D20004FF000404FEAD13706FB07FC4FEA1C4C5E
:100D30000CFB0BF7D21B03FB0CF761EB07010CFB61
:100D40000EF7B0EB074072EB17420CFB08F734BF0D
:100D5000A2EB0742B2EB074261EB17414FEA0C44AA
:100D60004FEA910706FB07FC4FEA1C4C0CFB0BF704
:100D7000B0EBC74072EB573203FB0CF734BFA2EB6A
:100D8000C742B2EBC74261EB57310CFB0EF7B0EB39
:100D9000C70072EB57720CFB08F734BFA2EBC70217
:100DA000B2EBC70261EB5771039F4FEA816141EAE1
:100DB000921104EBCC044FEAD1374FEA826206FB72
:100DC00007FC42EA90124FEA80604FEA1C4C0CFB91
:100DD0000BF7D21B03FB0CF761EB07010CFB0EF7C3
:100DE000B0EB074072EB17420CFB08F734BFA2EBE5
:100DF0000742B2EB074261EB17414FEA8C554FEACD
:100E0000910704EB9C2406FB07FC4FEA1C4C0CFBEF
:100E10000BF7B0EBC74072EB573203FB0CF734BF54
:100E2000A2EBC742B2EBC74261EB57310CFB0EF7A6
:100E3000B0EBC70072EB57720CFB08F734BFA2EBA4
:100E4000C702B2EBC70261EB577115EB4C254FEAB5
:100E5000816141EA92114FEA82624FEAD13742EA58
:100E6000901206FB07FC44F100044FEA80604FEA51
:100E70001C4C0CFB0BF7D21B03FB0CF761EB0701BF
:100E80000CFB0EF7B0EB074072EB17420CFB08F7B8
:100E900034BFA2EB0742B2EB074261EB174115EBFF
:100EA0001C154FEA813141EA92414FEA823242EA0F
:100EB00090424FEA80304FEA0C7644F1000448EA51
:100EC00003434EEA0B484FF0000EB2EB080C71EBF7
:100ED000030724BF624639464EEB0E0E4FF0000B5F
:100EE0000018524149414BEB0B0BB2EB080C71EB74
:100EF00003077BF1000B24BF624639464EEB0E0E12
:100F00004FF0000B0018524149414BEB0B0BB2EB79
:100F1000080C71EB03077BF1000B24BF62463946D6
:100F20004EEB0E0E51EA020718BF46F0010616EB13
:100F30000E7655F1000254F1000103D5BDE8890198
:100F4000BDE80088BDE88901BDE80048B6195241F6
:100F500041EB0101A3F10103704780807F7E7D7C1E
:100F60007B7A7978777676757473727171706F6E3B
:100F70006E6D6C6C6B6A6A696868676666656464E6
:100F8000636362616160605F5F5E5E5D5D5C5C5B70
:100F90005B5A5A59595858575756565555555454DF
:100FA000535352525251515050504F4F4F4E4E4D3D
:100FB0004D4D4C4C4C4B4B4B4A4A4A494949484889
:100FC00048474747474646464545454444444443C9
:100FD00043434342424242414141002B9C4630D46C
:100FE00077002BD01CB54FEA370703B44FF0100041
:100FF0004FF01001BAF1000F06D0BCF1000FDCBFBA
:1010000040F0080040F008014FF000000FBCBDE8C0
:1010100010400BF1010BBBF1010F08BF5FEA17078E
:1010200022BF12F1010211F101014FF0004143F121
:10103000000300F0004043EA00007047F9D357086E
:10104000D0E746EA064613F1400F4FEA16461FDD89
:1010500013F1200FDFBF16430A46002120335B4205
:10106000BED0C3F1200746EA064602FA07F74FEA68
:10107000164646EA0706C3F1200722FA03F201FAF0
:1010800007F721FA03F14FF0000342EA0702A7E74E
:1010900046EA020646EA06464FEA164646EA0106D0
:1010A000BCBF46EA0646360C4FF000034FF0000284
:1010B0004FF0000194E72DE9804C9A46934670B4B6
:1010C00091E8380007C831EA400C48BF34EA430CC5
:1010D00003D5FFF7E6FDFFF780FFF0BCBDE8008C0D
:1010E0002DE9804C9A46934670B491E8380007C8C1
:1010F00010F0804F08BF13F0804F03D100F005F8C7
:10110000FFF76BFFF0BCBDE8008C20F07F4780EA62
:10111000030023F07F4C07EB0C03A3F57C5300F096
:101120000040A3F1FE0392F0000F00F0B38095F0B1
:10113000000F00F077802DE901494FEA11404FEA96
:10114000144621EA004800FB06FC24EA064708FB97
:1011500006F607FB08F800FB07F718EB06484CEB10
:10116000164C4FEA124B18EB07484FEA15464CEB6A
:10117000174022EA0B4E0BFB06FC25EA06470EFB46
:1011800006F607FB0EFE0BFB07F71EEB064E4CEBBD
:10119000164C4FF000061EEB074E4CEB174B18EBAE
:1011A0000B0840F1000018EB0E0B58EB000840F163
:1011B00000008F1A4FF000013CBFC943661B14BFEB
:1011C000B5EB040C00213CBFC943F61B4FEA1744A2
:1011D0004EEA8E0E27EA04454FEA1C4704FB0762DD
:1011E0002CEA074C05FB07F70CFB05F604FB0CFC8F
:1011F00016EB074642EB174216EB0C4642EB1C423D
:101200001BEB060658EB0202414146EA9E0601D559
:10121000BDE80189B619524141EB0101A3F1010377
:10122000BDE801894FEA14454FEA114724EA054613
:1012300021EA074C05FB07F406FB07F70CFB06F158
:1012400005FB0CFC11EB074144EB17444FEA124736
:1012500011EB0C4144EB1C4422EA074C05FB07F25E
:1012600006FB07F70CFB06F605FB0CFC16EB074626
:1012700042EB174216EB0C4642EB1C456A1854F140
:10128000000148BF7047B619524141EB0101A3F17B
:101290000103704795F0000F37D04FEA11424FEA33
:1012A000144721EA024624EA074C02FB07F106FB39
:1012B00007F70CFB06F402FB0CFC14EB074441EBB4
:1012C00017414FEA154714EB0C4441EB1C4125EA4A
:1012D000074C02FB07F506FB07F70CFB06F602FBC3
:1012E0000CFC16EB074645EB174516EB0C4645EB99
:1012F0001C42121951F1000148BF7047B619524102
:1013000041EB0101A3F1010370474FEA14454FEA95
:10131000114724EA054621EA074C05FB07F106FBC5
:1013200007F70CFB06F24FF0000605FB0CFC12EB76
:10133000074241EB174112EB0C4251EB1C4148BFF5
:101340007047921841EB0101A3F1010370470000BF
:101350002348C06C40F012002149C8646FF030008F
:10136000204908600846006840F0100008601D48E9
:101370000830006820F030001A490831086008463B
:10138000006840F030000860081F006820F004008A
:10139000091F086013480C30006820F03000114924
:1013A0000C3108606FF440300F490860084600684F
:1013B00040F4803008600846806820F4403088603F
:1013C0000846806840F4403088600846406820F451
:1013D000807048600846C06820F44030C86070479C
:1013E0000010024000040048001000480348006854
:1013F00020F0040001490860704700001404004810
:101400000348006840F0040001490860704700008C
:10141000140400485E49096821F007015C4A116024
:101420001146096841F0020111605A49096841F406
:101430008071584A116000BF5649096801F4806103
:101440000029F9D010205349496821F0F851514A38
:1014500051601146496841EA0061516011460968CE
:1014600021F08071116000BF4A49096801F00071E4
:10147000B1F1007FF8D04749C96821F00301454A1E
:10148000D1601146C96841F00201D1601146C968B6
:1014900021F4FE4141F4A051D1601146C96821F008
:1014A000700141F01001D1601146C96821F0C0619E
:1014B000D1601146C96841F08071D1601146096858
:1014C00041F08071116000BF3249096801F000717C
:1014D0000029F9D02F49896821F003012D4A916034
:1014E0001146896841F00301916000BF294989686C
:1014F00001F00C010C29F9D12649896821F0F0018D
:10150000244A91601146896821F4E0619160114696
:10151000896821F4605191601146096821F0806169
:10152000116000BF1B49096801F08061B1F1806F53
:10153000F8D01849096921F4FE41164A1161114693
:10154000096941F4C05111611146096941F4003142
:1015500011611146096941F4803111611146096830
:1015600041F08061116000BF0A49096801F08061A3
:101570000029F9D007498831096821F44001054A5A
:10158000C2F888101146096E41F4001111667047C7
:1015900000200240001002401A48C06C40F00800D1
:1015A0001849C8641848006820F47050164908604B
:1015B0000846006840F42050086013482030006856
:1015C00040F0EE601049203108600F480830006894
:1015D00040F470500C4908310860081D006820F480
:1015E0007050091D08600846006840F4A05008606B
:1015F0000548001D006820F060000349091D0860CF
:101600007047000000100240000C004800B50D4873
:10161000806D40F400300B4988650A4888300068C6
:1016200020F00C00C1F888000846D0F8880040F08F
:101630000400C1F88800FFF7AFFF034800F010F87E
:1016400000BD0000001002400044004064224243FC
:101650000723B2FBF3F100BF4A1E111EFCD17047F5
:10166000016821F001010160016821F01021016091
:10167000016821F400410160416821F4405141605A
:1016800042F28D01C160016841F00C0101601E4908
:1016900088421BD1016841F020010160016821F0FE
:1016A00040010160016821F010010160016821F032
:1016B00080010160016821F480710160016821F0FE
:1016C00040010160016821F0010101600F49884279
:1016D00009D1016A41F0400101620D49096841F0F8
:1016E000C0010B4A1160016841F00101016000BFB7
:1016F000C16901F400110029FAD000BFC16901F4E9
:1017000080010029FAD07047004C0040004400409E
:1017100008380140014600BFC86900F020000028D9
:10172000FAD0888CC0B27047F0B504460E46174612
:1017300000250CE000BFE06900F080000028FAD02E
:10174000705D20854FF49670FFF780FF6D1CBD42E1
:10175000F0D300BFE06900F040000028FAD0E06953
:1017600020F04000E061F0BD03B401984100009812
:1017700050EAC12018BF04204A0D18BF40F00100F4
:1017800040F2FF72B2EB515F08BF40F00200012847
:1017900008BF052002B070472DED028B84B0FFF723
:1017A00039FEFFF7D5FDFFF731FF66E0224633A192
:1017B0003448FEF77DFD0646404600F0B1F841ECA6
:1017C000180B3049881953EC182B2FA1FEF770FD28
:1017D000064432462B492F48FFF7A6FF641C00EE53
:1017E000104AB8EEC00ADFED2C0A80EE201A11EE86
:1017F000108A002700E07F1C28488742FBDB002579
:1018000009E09DF80C000DF80500012203A921480C
:10181000FFF78AFF6D1C1F48FFF77CFF03900D2820
:10182000EFD102221EA11B48FFF77EFF00200DF81A
:1018300005001CA16846FEF7C1FD38B9FFF7D6FDCB
:10184000102219A11348FFF76FFF11E01AA1684693
:10185000FEF7B4FD38B9FFF7D3FD0F2217A10D48ED
:10186000FFF762FF04E01A2218A10A48FFF75CFFA5
:10187000002000900190029000BF97E761203D207A
:10188000256409000000002062203D2025660D0A25
:1018900000000000004400400000C84200093D0074
:1018A0000D0A00006F6666004C4544206973204FA6
:1018B00066660D0A0D0A00006F6E00004C4544205C
:1018C0006973206F6E0D0A0D0A0000004572726F79
:1018D000723A20696E76616C696420636F6D6D6128
:1018E0006E640D0A0D0A000010B500290AD00878B0
:1018F000002807D005487844FEF760FD002801D095
:10190000002010BD0248784410BD0000BE01000058
:10191000B60100000808A0F500114FEA3101704738
:1019200043004FEAD30C4FEA3C0C43401FBF400733
:101930000CF1605113F0FE4F70471CF0006F03D1A3
:1019400000200CF0004170470CF0004343EA507057
:1019500010B540EACC0000F00EF800BF0000009285
:101960004FEA0001FFF7D6BF4FF000414FF00000F3
:10197000A1F5002170470EF1020E2EF0030E5EF865
:10198000044B244204D44FEA4102B2F17F4F11D8F4
:101990004FEA4003B3F17F4F0CD80ED14FEAD07C11
:1019A000B2F17F4F0CEB4C0C0CF1020C08BF4CEB6E
:1019B000D17C04E04FF0080C01E04FEAD17C0CEB45
:1019C0004C0324FA03F404F00704B4F1040C06D227
:1019D0000EEB840CBDE810404CF0010C6047DFE8D2
:1019E0000CF0070802024FF00040A0F5800010BD87
:1019F0000846420018BFD2F1807288BF00F0004054
:101A000010BD4FF04070E1EE100A7047FEF74BBE7C
:101A100002400000000000A000000000054000009F
:101A2000000000C8000000000C4000000000409CC6
:101A300000000000194000000020BCBE00000000B3
:101A400034400000BFC91B8E00000004B5400000F8
:101A5000504BCFD06607E2CF010000006C41000080
:101A60003E8251AADFEEA73401000000D9420000F7
:101A7000DCB5A0E23A301F97FFFFFFFFB44500003E
:101A8000FD25A0C8E9A3C14FFFFFFFFFFF3F0000F6
:101A90000000008000000000FF3F00000000008008
:101AA00000000000D01A000800000020800600009E
:101AB000C40100081C00000043000000F8FFFFFF05
:101AC0000C0000000E0000000F0000002E000000BF
:040000050800018965
:00000001FF
