:020000040800F2
:10000000680600202902000865020008670200084F
:10001000690200086B0200086D0200080000000081
:100020000000000000000000000000006F02000857
:100030007102000800000000730200087502000849
:1000400077020008770200087702000877020008AC
:10005000770200087702000877020008770200089C
:10006000770200087702000877020008770200088C
:10007000770200087702000877020008770200087C
:10008000770200087702000877020008770200086C
:10009000770200087702000877020008770200085C
:1000A000770200087702000877020008770200084C
:1000B000770200087702000877020008770200083C
:1000C000770200087702000877020008770200082C
:1000D000770200087702000877020008770200081C
:1000E000770200087702000877020008770200080C
:1000F00077020008770200087702000877020008FC
:1001000077020008770200087702000877020008EB
:1001100077020008770200087702000877020008DB
:1001200077020008770200087702000877020008CB
:1001300077020008770200087702000877020008BB
:1001400077020008770200087702000877020008AB
:10015000770200087702000877020008770200089B
:10016000770200087702000877020008770200088B
:1001700077020008770200087702000800000000FC
:10018000770200087702000800F002F800F03CF85F
:100190000AA090E8000C82448344AAF10107DA45E2
:1001A00001D100F031F8AFF2090EBAE80F0013F0F8
:1001B000010F18BFFB1A43F001031847F8090000AC
:1001C000180A0000103A24BF78C878C1FAD852073C
:1001D00024BF30C830C144BF04680C6070470000C1
:1001E0000023002400250026103A28BF78C1FBD840
:1001F000520728BF30C148BF0B6070471FB500F0E1
:10020000D4FC1FBD10B510BD00F0D9F81146FFF7A2
:10021000F5FF00F0C5FC00F0F7F803B4FFF7F2FFBC
:1002200003BC00F0FFF8000016481749174B99422D
:100230003CBF50F8042B41F8042BF8D314494FF07D
:1002400000028B4238BF43F8042BFAD3DFF8440096
:10025000016841F470010160BFF34F8FBFF36F8FEE
:100260000D480047FEE7FEE7FEE7FEE7FEE7FEE794
:10027000FEE7FEE7FEE7FEE708480949094A0A4BA0
:1002800070470000D40B0008000000200800002088
:100290006806002088ED00E0890100086800002061
:1002A00068060020680200206802002010B5431C88
:1002B00002E010F8011B71B18107FAD14FF0013251
:1002C00002C88C1A8C4314EAC211F9D0C01A0A066B
:1002D00003D0C01E10BDC01A10BD0A0401D0801E7C
:1002E00010BD0902FCD0401E10BD4FF0000200B549
:1002F000134694469646203922BFA0E80C50A0E849
:100300000C50B1F12001BFF4F7AF090728BFA0E8F6
:100310000C5048BF0CC05DF804EB890028BF40F8C2
:10032000042B08BF704748BF20F8022B11F0804F04
:1003300018BF00F8012B70474FF0013C50F8042B18
:1003400051F8043B9A4221D1A2EB0C03934313EAE8
:10035000CC1317D150F8042B51F8043B9A4215D115
:10036000A2EB0C03934313EACC130BD150F8042BEC
:1003700051F8043B9A4209D1A2EB0C03934313EAD0
:10038000CC13DBD04FF00000704700BFD01A01BA89
:10039000B1FA81F101F0180122FA01F0CB40C1F16C
:1003A0002001DBB2C0B2C01A2CFA01F3D11A91437A
:1003B00011EAC311E6D17047704770477047754620
:1003C00000F02CF8AE4605006946534620F00700C1
:1003D000854618B020B5FFF74FFFBDE820404FF02D
:1003E00000064FF000074FF000084FF0000B21F01F
:1003F0000701AC46ACE8C009ACE8C009ACE8C009EC
:10040000ACE8C0098D46704710B50446AFF30080D4
:100410002046BDE81040FFF700BF000000487047CD
:100420000800002001491820ABBEFEE726000200AC
:10043000704700000348406920F48070014948611A
:1004400070470000001000480348406940F4807085
:1004500001494861704700000010004803484069A6
:1004600080F4807001494861704700000010004826
:100470002348C06C40F012002149C8646FF030007E
:10048000204908600846006840F0100008601D48D8
:100490000830006820F030001A490831086008462A
:1004A000006840F030000860081F006820F0040079
:1004B000091F086013480C30006820F03000114913
:1004C0000C3108606FF440300F490860084600683E
:1004D00040F4803008600846806820F4403088602E
:1004E0000846806840F4403088600846406820F440
:1004F000807048600846C06820F44030C86070478B
:100500000010024000040048001000480348006842
:1005100020F00400014908607047000014040048FE
:100520000348006840F0040001490860704700007B
:10053000140400480348006880F004000149086082
:1005400070470000140400485E49096821F0070163
:100550005C4A11601146096841F0020111605A4974
:10056000096841F48071584A116000BF5649096812
:1005700001F480610029F9D010205349496821F025
:10058000F851514A51601146496841EA0061516091
:100590001146096821F08071116000BF4A4909685D
:1005A00001F00071B1F1007FF8D04749C96821F02E
:1005B0000301454AD1601146C96841F00201D1608A
:1005C0001146C96821F4FE4141F4A051D1601146A1
:1005D000C96821F0700141F01001D1601146C9686D
:1005E00021F0C061D1601146C96841F08071D160CD
:1005F0001146096841F08071116000BF32490968F5
:1006000001F000710029F9D02F49896821F0030118
:100610002D4A91601146896841F00301916000BF45
:100620002949896801F00C010C29F9D1264989680A
:1006300021F0F001244A91601146896821F4E061BB
:1006400091601146896821F46051916011460968F2
:1006500021F08061116000BF1B49096801F08061D1
:10066000B1F1806FF8D01849096921F4FE41164AAA
:1006700011611146096941F4C051116111460969BE
:1006800041F4003111611146096941F48031116171
:100690001146096841F08061116000BF0A4909688C
:1006A00001F080610029F9D007498831096821F4F7
:1006B0004001054AC2F888101146096E41F4001144
:1006C0001166704700200240001002401A48C06CBA
:1006D00040F008001849C8641848006820F47050B9
:1006E000164908600846006840F420500860134826
:1006F0002030006840F0EE601049203108600F485B
:100700000830006840F470500C4908310860081D3A
:10071000006820F47050091D08600846006840F425
:10072000A05008600548001D006820F060000349E3
:10073000091D08607047000000100240000C0048CE
:1007400000B50D48806D40F400300B4988650A48BB
:100750008830006820F00C00C1F888000846D0F806
:10076000880040F00400C1F88800FFF7AFFF03489D
:1007700000F010F800BD00000010024000440040EE
:10078000642242430723B2FBF3F100BF4A1E111E4D
:10079000FCD17047016821F001010160016821F07E
:1007A00010210160016821F400410160416821F4D9
:1007B0004051416042F28D01C160016841F00C017D
:1007C00001601E4988421BD1016841F0200101608F
:1007D000016821F040010160016821F01001016011
:1007E000016821F080010160016821F480710160DD
:1007F000016821F040010160016821F00101016000
:100800000F49884209D1016A41F0400101620D4956
:10081000096841F0C0010B4A1160016841F0010113
:10082000016000BFC16901F400110029FAD000BFC6
:10083000C16901F480010029FAD07047004C0040E2
:1008400000440040083801400146C86900F020001B
:1008500010B1888CC0B270470020FCE7F0B50446A8
:100860000E46174600250CE000BFE06900F080004E
:100870000028FAD0705D20854FF49670FFF780FF56
:100880006D1CBD42F0D300BFE06900F040000028BD
:10089000FAD0E06920F04000E061F0BD86B0FFF7DB
:1008A00053FEFFF7E5FDFFF74BFF0024002568E04E
:1008B0003448FFF7C9FF00909DF80000002846D09B
:1008C0009DF800000D2808D101A800F061F800256E
:1008D000142101A8FFF709FD39E09DF80000082860
:1008E00003D09DF800007F2826D10021681E054610
:1008F00001AA1154012224A12248FFF7AFFF01A849
:10090000FFF7D4FC0646324601A91E48FFF7A6FFB2
:1009100001221EA11B48FFF7A1FF01221AA11948BD
:10092000FFF79CFF01A8FFF7C1FC0646324601A96C
:100930001448FFF793FF0AE09DF8002028466D1C3D
:1009400001A90A54012269460E48FFF787FF4FF4B8
:100950007A70FFF715FF00F01DF910B900F014F9D7
:1009600070B10A34B4F57A7F0ADB00F013F908B1EC
:10097000FFF7E0FD00F008F908B1FFF76FFD002474
:1009800000BF95E7004400400D000000200000007B
:1009900010B5044634A12046FFF7CEFC38B9FFF766
:1009A000BFFD172231A13748FFF758FF5BE036A1A2
:1009B0002046FFF7C1FC38B9FFF7A8FD182234A183
:1009C0003048FFF74BFF4EE038A12046FFF7B4FC5C
:1009D00038B9FFF739FD192235A12A48FFF73EFF44
:1009E00041E03AA12046FFF7A7FC38B9FFF722FD06
:1009F0001A2238A12348FFF731FF34E03CA12046FA
:100A0000FFF79AFC40B901203B49086019223BA13D
:100A10001C48FFF723FF26E03FA12046FFF78CFC90
:100A200040B901203E4908601B223EA11548FFF74E
:100A300015FF18E042A12046FFF77EFC70B90020A8
:100A40002D49086036490860FFF760FDFFF7F2FCAA
:100A50001D223EA10B48FFF701FF04E01B2243A12A
:100A60000848FFF7FBFE10BD524F4E000A0D5475AB
:100A7000726E696E6720726564206C6564206F6EAB
:100A80002E0A0D0000440040524F46460000000070
:100A90000A0D5475726E696E6720726564206C650C
:100AA00064206F66662E0A0D00000000474F4E005E
:100AB0000A0D5475726E696E6720677265656E20E7
:100AC0006C6564206F6E2E0A0D000000474F46468D
:100AD000000000000A0D5475726E696E672067721F
:100AE00065656E206C6564206F66662E0A0D0000D9
:100AF00052464C4153480000000000200A0D547536
:100B0000726E696E672072656420666C617368201E
:100B10006F6E2E0A0D00000047464C4153480000FE
:100B2000040000200A0D5475726E696E67206772AA
:100B300065656E20666C617368206F6E2E0A0D000D
:100B4000464C4153484F4646000000000A0D54757C
:100B5000726E696E6720616C6C20666C6173686987
:100B60006E67206F66662E0A0D0000000A0D457242
:100B7000726F723A20696E76616C696420636F6D82
:100B80006D616E64210A0D00014800687047000025
:100B900004000020014800687047000000000020A9
:100BA00010B5FFF77BFE002010BD4FF04070E1EE66
:100BB000100A7047D40B0008000000200800000055
:100BC000C4010008DC0B00080800002060060000DB
:0C0BD000E0010008000000000000000030
:040000050800018965
:00000001FF
